:100000000C9462000C948A000C948A000C948A0070
:100010000C948A000C948A000C948A000C948A0038
:100020000C948A000C948A000C948A000C94CE02E2
:100030000C948A000C948A000C948A000C948A0018
:100040000C9484020C948A000C9452020C942C029E
:100050000C948A000C948A000C948A000C948A00F8
:100060000C948A000C948A000000000023002600F3
:10007000290000000000240027002A0000000000E2
:10008000250028002B0004040404040404040202D4
:100090000202020203030303030301020408102007
:1000A0004080010204081020010204081020000012
:1000B0000008000201000003040700000000000027
:1000C0000000870511241FBECFEFD8E0DEBFCDBFF3
:1000D00011E0A0E0B1E0E4E4FEE002C005900D9282
:1000E000AA33B107D9F722E0AAE3B1E001C01D921B
:1000F000A131B207E1F710E0C2E6D0E004C02197D9
:10010000FE010E94D605C136D107C9F70E94FB0344
:100110000C9420070C940000CF92DF92EF92FF9294
:100120000F931F93CF93DF936C017A018B01C0E093
:10013000D0E0CE15DF0589F0D8016D918D01D60193
:10014000ED91FC910190F081E02DC6010995892B7C
:1001500011F47E0102C02196ECCFC701DF91CF914F
:100160001F910F91FF90EF90DF90CF900895FC01C9
:10017000918D828D981761F0828DDF01A80FB11DDE
:100180005D968C91928D9F5F9F73928F90E0089502
:100190008FEF9FEF0895FC01918D828D981731F0BC
:1001A000828DE80FF11D858D90E008958FEF9FEF10
:1001B0000895FC01918D228D892F90E0805C9F4FE6
:1001C000821B91098F739927089584E791E00E941B
:1001D000D90021E0892B09F420E0822F0895FC0149
:1001E000848DDF01A80FB11DA35ABF4F2C91848DC0
:1001F00090E001968F739927848FA689B7892C93F5
:10020000A089B1898C9180648C93938D848D98138F
:1002100006C00288F389E02D80818F7D8083089558
:10022000EF92FF920F931F93CF93DF93EC0181E046
:10023000888F9B8D8C8D981305C0E889F989808102
:1002400085FD24C0F62E0B8D10E00F5F1F4F0F733E
:100250001127E02E8C8DE8120CC00FB607FCFACFE8
:10026000E889F989808185FFF5CFCE010E94EF00F2
:10027000F1CF8B8DFE01E80FF11DE35AFF4FF082A5
:100280000B8FEA89FB898081806207C0EE89FF8934
:100290006083E889F98980818064808381E090E0CF
:1002A000DF91CF911F910F91FF90EF900895CF9321
:1002B000DF93EC01888D8823C9F0EA89FB8980816E
:1002C00085FD05C0A889B9898C9186FD0FC00FB640
:1002D00007FCF5CF808185FFF2CFA889B9898C9181
:1002E00085FFEDCFCE010E94EF00E7CFDF91CF91E8
:1002F000089580E090E0892B29F00E94E5008111AB
:100300000C9400000895833081F028F4813099F036
:100310008230A1F008958730A9F08830B9F0843098
:10032000D1F4809180008F7D03C0809180008F7711
:1003300080938000089584B58F7702C084B58F7D47
:1003400084BD08958091B0008F7703C08091B00084
:100350008F7D8093B00008951F93CF93DF93282F54
:1003600030E0F901E255FF4F8491F901E656FF4F65
:10037000D491F901EA57FF4FC491CC23C9F0162F4D
:1003800081110E948301EC2FF0E0EE0FFF1FE45873
:10039000FF4FA591B4918FB7F894111105C09C91AE
:1003A000ED2FE095E92302C0EC91ED2BEC938FBF8C
:1003B000DF91CF911F910895CF93DF9390E0FC01DF
:1003C000E656FF4F2491FC01EA57FF4F84918823A2
:1003D00061F190E0880F991FFC01EE58FF4FC59125
:1003E000D491FC01E458FF4FA591B491611109C06B
:1003F0009FB7F8948881209582238883EC912E23DF
:100400000BC0623061F49FB7F8943881822F8095D9
:1004100083238883EC912E2B2C939FBF06C08FB72C
:10042000F894E8812E2B28838FBFDF91CF91089518
:10043000009769F0FC0101900020E9F73197AF01C6
:10044000481B590BBC0184E791E00C948C0080E0C0
:1004500090E008950E9412071F920F920FB60F921C
:1004600011242F933F934F935F936F937F938F93B9
:100470009F93AF93BF93EF93FF9384E791E00E9424
:10048000EF00FF91EF91BF91AF919F918F917F917D
:100490006F915F914F913F912F910F900FBE0F90F1
:1004A0001F9018951F920F920FB60F9211242F9341
:1004B0008F939F93EF93FF93E0918401F0918501D7
:1004C0008081E0918A01F0918B0182FD12C09081C0
:1004D00080918D018F5F8F7320918E01821751F073
:1004E000E0918D01F0E0EC58FE4F958F80938D01E7
:1004F00001C08081FF91EF919F918F912F910F907B
:100500000FBE0F901F9018951F920F920FB60F926B
:1005100011242F933F938F939F93AF93BF93809119
:100520004D0190914E01A0914F01B0915001309139
:100530004C0123E0230F2D3720F40196A11DB11D9E
:1005400005C026E8230F0296A11DB11D20934C0182
:1005500080934D0190934E01A0934F01B0935001B1
:100560008091480190914901A0914A01B0914B01BD
:100570000196A11DB11D8093480190934901A0935C
:100580004A01B0934B01BF91AF919F918F913F91E1
:100590002F910F900FBE0F901F9018951F920F92E2
:1005A0000FB60F9211241F932F933F934F935F9396
:1005B0006F937F938F939F93AF93BF93CF93DF936B
:1005C000EF93FF9310915301112331F18091470173
:1005D000811122C02091000130E0F901E255FF4F66
:1005E0008491F901E656FF4FD491F901EA57FF4F84
:1005F000C491CC2359F181110E948301EC2FF0E0CA
:10060000EE0FFF1FE859FF4FA591B491EC91ED2338
:1006100081E0E1F08093460180914701882341F019
:100620008091450191E0980F90934501882381F0D6
:1006300080914501883010F010924501112309F492
:10064000C6C0409147014423C1F0C1C080E0E2CF61
:10065000609151018AE00E94AC0160E08CE00E9450
:10066000AC011092470180914301909144010196A1
:100670009093440180934301DBCF8091460188230E
:1006800029F0909142019F5F909342012091410196
:1006900090914001821759F0903510F02DE101C082
:1006A0002BE0920F909340018093410103C09C5E28
:1006B0009093400190914001903A08F488C02091B5
:1006C0003E0130913F013695279530933F012093AD
:1006D0003E0180914201853028F0386030933F011F
:1006E00020933E01905A90934001109242018091D4
:1006F0005201882309F45BC090913D019F5F909364
:100700003D019C3008F463C020913E0130913F01CF
:10071000822F8F73EFE0F1E0DF0190E05D918517AC
:1007200021F09F5F9031D1F790E050E1959FC0019B
:10073000112496E0369527959A95E1F730E051918E
:10074000251721F03F5F3031D1F701C0432F842BB3
:100750009091720191110EC080933C019CEF980F13
:100760009B3140F01092520180913B018F5F80934A
:100770003B012DC0E091720191E09E0F90937201B8
:10078000F0E0EC5AFE4F80839091720180913C0121
:10079000981750F01092520180913A018F5F809328
:1007A0003A0181E08093730110923D0110C0809165
:1007B0003E0190913F0188339B4049F481E0809352
:1007C000520110923D011092720110927301FF913B
:1007D000EF91DF91CF91BF91AF919F918F917F91D9
:1007E0006F915F914F913F912F911F910F900FBE8D
:1007F0000F901F901895CF93DF93CDB7DEB7EF978B
:100800000FB6F894DEBF0FBECDBF789484B582607A
:1008100084BD84B5816084BD85B5826085BD85B5A4
:10082000816085BD80916E00816080936E00109222
:10083000810080918100826080938100809181009D
:10084000816080938100809180008160809380002E
:100850008091B10084608093B1008091B00081608C
:100860008093B00080917A00846080937A008091B8
:100870007A00826080937A0080917A008160809310
:100880007A0080917A00806880937A001092C1008B
:1008900081E0809351018CE0809300018EE0E1E0E3
:1008A000F1E0DE01119601900D928A95E1F77E014B
:1008B00023E0E20EF11C11E0F701619171917F01DB
:1008C00080E090E00E9484069B01AC0160E074E24D
:1008D00084E79BE40E94DC059B01AC0160E070E0D2
:1008E00080E89FE30E94DC059B01AC016FE672E1AA
:1008F00083E098E30E94DC050E944E062B013C0138
:10090000F2E04F1A5108610871082DEF42162FEFDF
:1009100052066104710408F4F6C01F5F173061F6D7
:10092000623071058105910568F161157105F1E08D
:100930008F07910538F5112329F11092800028E0E6
:100940002093810020918100122B109381007093DD
:1009500089006093880080916F00826080936F00AF
:1009600061E08CE00E94DC0160E0809100010E9467
:10097000DC0161E08AE00E94DC01609151018AE0C3
:100980000E94AC0161E08DE00E94DC01E0918401F5
:10099000F091850182E08083E0918001F0918101F6
:1009A0001082E0918201F09183018FEC808310929C
:1009B0008C01E0918801F091890186E08083E091CB
:1009C0008601F0918701808180618083E0918601BA
:1009D000F0918701808188608083E0918601F091A9
:1009E0008701808180688083E0918601F091870192
:1009F00080818F7D808380915301811105C081E0CA
:100A000080935301109252017E0132E2E30EF11CF9
:100A10004AE0442E512C612C712C80917301882363
:100A200009F46EC00091720103500E3108F00EE11E
:100A300010E0A80165E571E0C7010E941707109258
:100A4000730120917201E4E5F1E08FEF9FEF2150F7
:100A5000F0F06191682730E1639FA00111246427C1
:100A600070E0562F4427892F9927842B952BAB01B3
:100A7000B4E055954795BA95E1F78427952733E07B
:100A8000660F771F3A95E1F786279727E0CF883BD7
:100A9000904FB1F58AA1803311F0670118C08FE241
:100AA00091E00E94180260E028C0CA01B901A301C8
:100AB00092010E94B405605DF50162935F0121150A
:100AC00031054105510589F7CF010E941802C60181
:100AD0008E199F09801791075CF4F60121916F012F
:100AE00030E040E050E019A2CE0181965C01DDCFFC
:100AF00087E391E00E94180261E08DE00E94AC0162
:100B00000E9479018ACF163009F015CF3BCFE4E778
:100B1000F1E01382128288EE93E0A0E0B0E08483DB
:100B20009583A683B78383E291E09183808385ECEC
:100B300090E09587848784EC90E09787868780ECA7
:100B400090E0918B808B81EC90E0938B828B82EC98
:100B500090E0958B848B86EC90E0978B868B118E42
:100B6000128E138E148E0895A1E21A2EAA1BBB1B9F
:100B7000FD010DC0AA1FBB1FEE1FFF1FA217B30769
:100B8000E407F50720F0A21BB30BE40BF50B661F7F
:100B9000771F881F991F1A9469F760957095809543
:100BA00090959B01AC01BD01CF010895EE0FFF1F91
:100BB0000590F491E02D09940E94F0050C94D8065C
:100BC0000E94D10658F00E94CA0640F029F45F3F07
:100BD00029F00C94C10651110C940C070C94C70613
:100BE0000E94E90668F39923B1F3552391F3951B0D
:100BF000550BBB27AA2762177307840738F09F5F3E
:100C00005F4F220F331F441FAA1FA9F335D00E2EAA
:100C10003AF0E0E832D091505040E695001CCAF717
:100C20002BD0FE2F29D0660F771F881FBB1F2617DA
:100C300037074807AB07B0E809F0BB0B802DBF01B1
:100C4000FF2793585F4F3AF09E3F510578F00C9480
:100C5000C1060C940C075F3FE4F3983ED4F38695ED
:100C600077956795B795F7959F5FC9F7880F911DA1
:100C70009695879597F90895E1E0660F771F881F8D
:100C8000BB1F621773078407BA0720F0621B730B40
:100C9000840BBA0BEE1F88F7E09508950E94550665
:100CA0006894B1110C940C0708950E94F10688F025
:100CB0009F5798F0B92F9927B751B0F0E1F0660F20
:100CC000771F881F991F1AF0BA95C9F714C0B13061
:100CD00091F00E940B07B1E008950C940B07672F69
:100CE000782F8827B85F39F0B93FCCF38695779590
:100CF0006795B395D9F73EF4909580957095619579
:100D00007F4F8F4F9F4F0895E89409C097FB3EF4A3
:100D100090958095709561957F4F8F4F9F4F992348
:100D2000A9F0F92F96E9BB279395F69587957795C6
:100D30006795B795F111F8CFFAF4BB0F11F460FF86
:100D40001BC06F5F7F4F8F4F9F4F16C0882311F0DE
:100D500096E911C0772321F09EE8872F762F05C0F2
:100D6000662371F096E8862F70E060E02AF09A958D
:100D7000660F771F881FDAF7880F9695879597F982
:100D8000089597F99F6780E870E060E008959FEF0D
:100D900080EC089500240A94161617061806090612
:100DA000089500240A9412161306140605060895E1
:100DB000092E0394000C11F4882352F0BB0F40F469
:100DC000BF2B11F460FF04C06F5F7F4F8F4F9F4FA9
:100DD000089557FD9058440F551F59F05F3F71F02B
:100DE0004795880F97FB991F61F09F3F79F0879592
:100DF0000895121613061406551FF2CF4695F1DF1B
:100E000008C0161617061806991FF1CF86957105AA
:100E1000610508940895E894BB2766277727CB01DE
:100E200097F9089581E090E0F8940C942007FB0175
:100E3000DC0102C001900D9241505040D8F7089556
:040E4000F894FFCF54
:100E44000B000001000800400000010004050D0D26
:100E54000E131516191A1C232526292A2C323400A0
:100E640000000010018C00D900B700CB0057014EE0
:0A0E74006F2044617461000A000061
:00000001FF
