:100000000C945E000C9486000C9486000C94860080
:100010000C9486000C9486000C9486000C94860048
:100020000C9486000C9486000C9486000C94760345
:100030000C9486000C9486000C9486000C94860028
:100040000C942C030C9486000C94FA020C94D402A9
:100050000C9486000C9486000C9486000C94860008
:100060000C9486000C9486000000000024002700F9
:100070002A0000000000250028002B0004040404CE
:100080000404040402020202020203030303030342
:10009000010204081020408001020408102001021F
:1000A00004081020000000080002010000030407FB
:1000B0000000000000000000E803D20611241FBE6B
:1000C000CFEFD8E0DEBFCDBF11E0A0E0B1E0E6EEBB
:1000D000F4E102C005900D92AA37B107D9F722E0EA
:1000E000AAE7B1E001C01D92A633B207E1F710E024
:1000F000CDE5D0E004C02197FE010E94D806CC35A2
:10010000D107C9F70E9423040C94660A0C940000DE
:100110002FB7F89480918B0190918C01A0918D0163
:10012000B0918E012FBF8093970190939801A09377
:100130009901B0939A01E0918F01F09190010680AE
:10014000F781E02D8FE891E0099597FF26C02FB742
:10015000F89480918B0190918C01A0918D01B091C8
:100160008E012FBF409197015091980160919901A4
:1001700070919A01841B950BA60BB70B40919301CC
:1001800050919401609195017091960184179507A3
:10019000A607B70780F28FEF9FEF08950895CF92DB
:1001A000DF92EF92FF920F931F93CF93DF936C0137
:1001B0007A018B01C0E0D0E0CE15DF0589F0D801CF
:1001C0006D918D01D601ED91FC910190F081E02DB2
:1001D000C6010995892B11F47E0102C02196ECCF4E
:1001E000C701DF91CF911F910F91FF90EF90DF90AA
:1001F000CF900895FC01918D828D981761F0828DCA
:10020000DF01A80FB11D5D968C91928D9F5F9F734A
:10021000928F90E008958FEF9FEF0895FC01918DEC
:10022000828D981731F0828DE80FF11D858D90E059
:1002300008958FEF9FEF0895FC01918D228D892FF6
:1002400090E0805C9F4F821B91098F7399270895DE
:100250008FE891E00E941C0121E0892B09F420E045
:10026000822F0895FC01848DDF01A80FB11DA35AD0
:10027000BF4F2C91848D90E001968F739927848FC6
:10028000A689B7892C93A089B1898C9180648C93BD
:10029000938D848D981306C00288F389E02D8081A8
:1002A0008F7D80830895EF92FF920F931F93CF93DA
:1002B000DF93EC0181E0888F9B8D8C8D981305C0B6
:1002C000E889F989808185FD24C0F62E0B8D10E028
:1002D0000F5F1F4F0F731127E02E8C8DE8120CC09B
:1002E0000FB607FCFACFE889F989808185FFF5CF41
:1002F000CE010E943201F1CF8B8DFE01E80FF11D7E
:10030000E35AFF4FF0820B8FEA89FB89808180627C
:1003100007C0EE89FF896083E889F989808180645C
:10032000808381E090E0DF91CF911F910F91FF904A
:10033000EF900895CF93DF93EC01888D8823C9F067
:10034000EA89FB89808185FD05C0A889B9898C91DE
:1003500086FD0FC00FB607FCF5CF808185FFF2CF79
:10036000A889B9898C9185FFEDCFCE010E94320119
:10037000E7CFDF91CF91089580E090E0892B29F0BD
:100380000E94280181110C9400000895833081F0AF
:1003900028F4813099F08230A1F008958730A9F0D7
:1003A0008830B9F08430D1F4809180008F7D03C013
:1003B000809180008F7780938000089584B58F7737
:1003C00002C084B58F7D84BD08958091B0008F7781
:1003D00003C08091B0008F7D8093B00008951F937B
:1003E000CF93DF93282F30E0F901EC55FF4F849134
:1003F000F901E057FF4FD491F901E458FF4FC49140
:10040000CC23C9F0162F81110E94C601EC2FF0E019
:10041000EE0FFF1FEE58FF4FA591B4918FB7F894E0
:10042000111105C09C91ED2FE095E92302C0EC91DC
:10043000ED2BEC938FBFDF91CF911F910895CF9358
:10044000DF9390E0FC01E057FF4F2491FC01E4585A
:10045000FF4F8491882361F190E0880F991FFC0180
:10046000E859FF4FC591D491FC01EE58FF4FA5917B
:10047000B491611109C09FB7F894888120958223B7
:100480008883EC912E230BC0623061F49FB7F894FF
:100490003881822F809583238883EC912E2B2C9397
:1004A0009FBF06C08FB7F894E8812E2B28838FBF9B
:1004B000DF91CF9108953FB7F89480917F0190919B
:1004C0008001A0918101B091820126B5A89B05C051
:1004D0002F3F19F00196A11DB11D3FBFBA2FA92FC3
:1004E000982F8827820F911DA11DB11DBC01CD0140
:1004F00042E0660F771F881F991F4A95D1F708952C
:100500000E947D090F931F93CF93DF93EC018881A5
:100510009981009729F02A813B812617370788F4B3
:100520008B016F5F7F4F0E94B308009761F0998342
:1005300088831B830A832C813D81232B11F4FC01CA
:10054000108281E001C080E0DF91CF911F910F9177
:100550000895EF92FF920F931F93CF93DF93EC01D7
:100560007B018A01BA010E948202288139818111AE
:100570000DC02115310519F0C9010E941B0819820F
:1005800018821D821C821B821A8206C01D830C8366
:10059000B701C9010E948B09CE01DF91CF911F9154
:1005A0000F91FF90EF9008951F920F920FB60F9248
:1005B00011242F933F934F935F936F937F938F9368
:1005C0009F93AF93BF93EF93FF938FE891E00E94C7
:1005D0003201FF91EF91BF91AF919F918F917F91E8
:1005E0006F915F914F913F912F910F900FBE0F90A0
:1005F0001F9018951F920F920FB60F9211242F93F0
:100600008F939F93EF93FF93E0919F01F091A0014F
:100610008081E091A501F091A60182FD12C0908138
:100620008091A8018F5F8F732091A901821751F0EB
:10063000E091A801F0E0E157FE4F958F8093A8016B
:1006400001C08081FF91EF919F918F912F910F9029
:100650000FBE0F901F9018951F920F920FB60F921A
:1006600011242F933F938F939F93AF93BF938091C8
:100670008B0190918C01A0918D01B0918E013091F0
:100680007E0123E0230F2D3720F40196A11DB11D1B
:1006900005C026E8230F0296A11DB11D20937E01FF
:1006A00080938B0190938C01A0938D01B0938E0168
:1006B00080917F0190918001A0918101B091820190
:1006C0000196A11DB11D80937F0190938001A0939D
:1006D0008101B0938201BF91AF919F918F913F9122
:1006E0002F910F900FBE0F901F9018951F920F9291
:1006F0000FB60F9211242F933F934F935F936F93F5
:100700007F938F939F93AF93BF93CF93DF93EF9399
:10071000FF9380918801882319F18091840191E0F1
:10072000980F9093840181111BC0C0918601809124
:100730008701C817E0F0609183018AE00E94EF0111
:1007400060E0809100010E94EF0110928801809189
:100750007C0190917D01019690937D0180937C01B5
:1007600080918401883008F1109284011EC0EC2F22
:10077000F0E0EF5FFE4F908180918501D1E0D80FCE
:10078000D093850161E070E001C0660F8A95EAF7B9
:100790006923809100010E94EF01D63008F3109286
:1007A0008501CF5FC0938601DBCFFF91EF91DF9191
:1007B000CF91BF91AF919F918F917F916F915F91F9
:1007C0004F913F912F910F900FBE0F901F90189552
:1007D000EFE8F1E01382128288EE93E0A0E0B0E04F
:1007E00084839583A683B7838DE691E0918380838C
:1007F00085EC90E09587848784EC90E097878687E6
:1008000080EC90E0918B808B81EC90E0938B828BDD
:1008100082EC90E0958B848B86EC90E0978B868BB6
:10082000118E128E138E148EECE2F2E01182108281
:10083000138212821582148240E050E069E771E071
:10084000CF010C94A902CF93DF93CDB7DEB76097A9
:100850000FB6F894DEBF0FBECDBF789484B582602A
:1008600084BD84B5816084BD85B5826085BD85B554
:10087000816085BD80916E00816080936E001092D2
:10088000810080918100826080938100809181004D
:1008900081608093810080918000816080938000DE
:1008A0008091B10084608093B1008091B00081603C
:1008B0008093B00080917A00846080937A00809168
:1008C0007A00826080937A0080917A0081608093C0
:1008D0007A0080917A00806880937A001092C1003B
:1008E00061E08DE00E941F0281E0809383018CE033
:1008F000809300018EE0EBE4F1E0DE0111960190BF
:100900000D928A95E1F77E0123E0E20EF11C11E0E1
:10091000D7016D917D917D0180E090E00E94A10959
:100920009B01AC0160E074E284E79BE40E94DE0678
:100930009B01AC0160E070E080E89FE30E94DE066E
:100940009B01AC016FE672E183E098E30E94DE0652
:100950000E9450074B015C01B2E08B1A9108A1087C
:10096000B108EDEF8E16EFEF9E06A104B10408F476
:1009700015C21F5F173061F6623071058105910560
:1009800068F161157105F1E08F07910538F51123C4
:1009900029F11092800028E02093810020918100AD
:1009A000122B1093810070938900609388008091CE
:1009B0006F00826080936F0061E0809100010E946F
:1009C0001F0260E08BE00E941F0261E08AE00E944B
:1009D0001F02609183018AE00E94EF01E0919F0174
:1009E000F091A00182E08083E0919B01F0919C0155
:1009F0001082E0919D01F0919E018FEC8083109216
:100A0000A701E091A301F091A40186E08083E09129
:100A1000A101F091A201808180618083E091A10118
:100A2000F091A201808188608083E091A101F09122
:100A3000A201808180688083E091A101F091A201F0
:100A400080818F7D80830091890110918A017801D6
:100A50006801602E772473948FE891E00E941C0156
:100A6000181619060CF08AC01A8219821C821B8281
:100A70001E821D8240E050E069E771E0CE010196E0
:100A80000E94A9020E94880097FD1CC08F87188AC7
:100A9000AD80BE802FEFA21AB20AB501CE01019639
:100AA0000E948202882371F329813A818D819E817F
:100AB000BE01615F7F4F820F931F0E948B09BE8230
:100AC000AD82E0CF80912C0290912D020097C9F069
:100AD00069817A816115710591F040912E025091E2
:100AE0002F022D813E814217530748F00E948B0947
:100AF0008D819E81909331028093300218C00E94B4
:100B00001B0889819A8190932D0280932C028B81FE
:100B10009C8190932F0280932E028D819E819093D1
:100B20003102809330021A8219821C821B821E823B
:100B30001D8289819A810E941B08E114F10409F148
:100B4000A0903002B0903102A114B10419F4D70181
:100B50001C9217C0B3E1AB16B10418F093E1A92EB3
:100B6000B12C60912C0270912D02A501C7010E9449
:100B70009209F701EA0DFB1D108203C020E3F80182
:100B80002083F60101900020E9F73197AF014C195D
:100B90005D09842E8BE1841708F4CAC08091880116
:100BA0008111FCCFE3E0E40F8E2F809590E1899FC7
:100BB000B00111246827862F90E0382F22272F6F4D
:100BC000BC01F4E075956795FA95E1F7262737277C
:100BD000A3E0880F991FAA95E1F728273927AE2FA0
:100BE000B0E084E0B595A7958A95E1F7A75ABE4F86
:100BF0008C9180930901EF70F0E0E75AFE4F8081FD
:100C000080930A016CE071E0D6018A2F861988155D
:100C1000D8F55D019D90892D822790E1899FF00193
:100C20001124E8278E2F90E0F82FEE27232F33276B
:100C30002E2B3F2BFC0154E0F595E7955A95E1F7F3
:100C40002E273F27E3E0880F991FEA95E1F7282731
:100C50003927CB010197E92DF0E054E0F595E795B0
:100C60005A95E1F7E75AFE4F9080FC019082F5011A
:100C70008081E82FEF70F0E0E75AFE4F8081FB01A2
:100C800080836E5F7F4FC1CF4F5F440FF901E095C6
:100C9000F095842F90E0875F9E4FDF0124E0B695AA
:100CA000A7952A95E1F7AF70BB27A75ABE4F2C91A5
:100CB000DC012C93A1E0A40FB0E09D01275F3E4F23
:100CC000CF018F709927875A9E4FDC018C91D901F3
:100CD0008C93A2E0A40FB0E09D01275F3E4FCF01AF
:100CE000892F992782958F70875A9E4FDC018C91AE
:100CF000D9018C93A3E0A40FB0E0A75FBE4FEF2F04
:100D0000FF27EF70FF27E75AFE4F80818C93445FE7
:100D10004093870110928601109285011092840100
:100D20006091830167258AE00E94EF01709288013B
:100D3000809188018111FCCF61E08DE00E94EF017C
:100D40000E945B021B012C0180ED882E87E0982E0B
:100D5000A12CB12C0E945B02DC01CB01821993090A
:100D6000A409B509883E9340A105B10558F0B1E04A
:100D70008B1A9108A108B108E8EE2E0EE3E03E1EA2
:100D8000411C511C81149104A104B10419F760E0C5
:100D90008DE00E94EF010E94BC015ECE163009F08A
:100DA000F6CD1CCE80912C0290912D020C941B0844
:100DB000EE0FFF1F0590F491E02D09940E94F206BA
:100DC0000C94F5090E94EE0958F00E94E70940F0E2
:100DD00029F45F3F29F00C94DE0951110C94290A83
:100DE0000C94E4090E94060A68F39923B1F3552391
:100DF00091F3951B550BBB27AA276217730784072E
:100E000038F09F5F5F4F220F331F441FAA1FA9F3C3
:100E100035D00E2E3AF0E0E832D091505040E695B1
:100E2000001CCAF72BD0FE2F29D0660F771F881F12
:100E3000BB1F261737074807AB07B0E809F0BB0B05
:100E4000802DBF01FF2793585F4F3AF09E3F510519
:100E500078F00C94DE090C94290A5F3FE4F3983E85
:100E6000D4F3869577956795B795F7959F5FC9F702
:100E7000880F911D9695879597F90895E1E0660F83
:100E8000771F881FBB1F621773078407BA0720F0FC
:100E9000621B730B840BBA0BEE1F88F7E095089565
:100EA0000E9457076894B1110C94290A08950E9472
:100EB0000E0A88F09F5798F0B92F9927B751B0F0D4
:100EC000E1F0660F771F881F991F1AF0BA95C9F7CE
:100ED00014C0B13091F00E94280AB1E008950C943A
:100EE000280A672F782F8827B85F39F0B93FCCF3ED
:100EF000869577956795B395D9F73EF4909580954B
:100F0000709561957F4F8F4F9F4F0895CF93DF93DB
:100F10008230910510F482E090E0E0913402F0918B
:100F2000350220E030E0C0E0D0E0309711F14081A0
:100F3000518148175907C0F04817590761F4828159
:100F40009381209719F09B838A832BC0909335025D
:100F50008093340226C02115310519F0421753073A
:100F600018F49A01BE01DF01EF010280F381E02D48
:100F7000DCCF2115310509F1281B390B243031054F
:100F800090F412968D919C9113976115710521F043
:100F9000FB019383828304C09093350280933402D3
:100FA000FD01329644C0FD01E20FF31F819391933E
:100FB000225031092D933C933AC020913202309156
:100FC0003302232B41F420914701309148013093A3
:100FD00033022093320220914501309146012115C0
:100FE000310541F42DB73EB74091490150914A0176
:100FF000241B350BE0913202F0913302E217F30724
:10100000A0F42E1B3F0B2817390778F0AC014E5F78
:101010005F4F2417350748F04E0F5F1F5093330280
:10102000409332028193919302C0E0E0F0E0CF015F
:10103000DF91CF9108950F931F93CF93DF93009784
:1010400009F48CC0FC0132971382128200913402A1
:10105000109135020115110581F420813181820F33
:10106000931F20913202309133022817390779F506
:10107000F0933302E093320271C0D80140E050E0B7
:10108000AE17BF0750F412962D913C911397AD0106
:101090002115310509F1D901F3CF9D01DA0133831F
:1010A000228360817181860F971F8217930769F4ED
:1010B000EC0128813981260F371F2E5F3F4F318386
:1010C00020838A819B8193838283452B29F4F0932B
:1010D0003502E093340242C01396FC93EE931297CC
:1010E000ED01499159919E01240F351FE217F30735
:1010F00071F480819181840F951F029611969C93C3
:101100008E938281938113969C938E931297E0E045
:10111000F0E0D80112968D919C911397009719F0E9
:10112000F8018C01F6CF8D919C9198012E5F3F4F75
:10113000820F931F20913202309133022817390712
:1011400069F4309729F4109235021092340202C0EB
:10115000138212821093330200933202DF91CF91F7
:101160001F910F910895A0E0B0E0E9EBF8E00C9436
:10117000330AEC01009721F4CB010E948607B8C026
:10118000FC01E60FF71F9C0122503109E217F3071B
:1011900008F4ACC0D9010D911C91119706171707DF
:1011A000B0F00530110508F49FC0C80104978617F8
:1011B000970708F499C002501109061B170B0193F9
:1011C00011936D937C93CF010E941B088DC05B012E
:1011D000A01AB10A4C01800E911EA0913402B09168
:1011E000350240E050E0E12CF12C109709F44AC0A0
:1011F000A815B905D1F56D907C901197630182E037
:10120000C80ED11CCA14DB0480F1A3014A195B0982
:101210006A0182E0C80ED11C1296BC9012971396F8
:10122000AC91B5E0CB16D10440F0B282A3835183D8
:101230004083D9016D937C930AC00E5F1F4FC30199
:10124000800F911FF90191838083EB2DFA2FE11418
:10125000F10431F0D7011396FC93EE93129744C03A
:10126000F0933502E09334023FC08D919C91119729
:101270004817590708F4AC017D0112960D90BC91F6
:10128000A02DB3CF80913202909133028815990539
:10129000E1F446175707C8F4809145019091460143
:1012A000009741F48DB79EB74091490150914A0192
:1012B000841B950BE817F907C8F4F0933302E09309
:1012C0003202F901718360830FC0CB010E9486074F
:1012D0007C01009759F0A801BE010E948209CE014D
:1012E0000E941B08C70104C0CE0102C080E090E04C
:1012F000CDB7DEB7EEE00C944F0A81E090E0F894B1
:101300000C94660AFB01DC0102C001900D92415071
:101310005040D8F70895FB01DC0101900D920020A8
:10132000E1F70895FB01DC014150504048F0019085
:101330000D920020C9F701C01D9241505040E0F7C6
:101340000895E89409C097FB3EF4909580957095B8
:1013500061957F4F8F4F9F4F9923A9F0F92F96E901
:10136000BB279395F695879577956795B795F11176
:10137000F8CFFAF4BB0F11F460FF1BC06F5F7F4F13
:101380008F4F9F4F16C0882311F096E911C0772325
:1013900021F09EE8872F762F05C0662371F096E82E
:1013A000862F70E060E02AF09A95660F771F881FFD
:1013B000DAF7880F9695879597F9089597F99F67BB
:1013C00080E870E060E008959FEF80EC08950024CD
:1013D0000A941616170618060906089500240A949A
:1013E00012161306140605060895092E0394000C20
:1013F00011F4882352F0BB0F40F4BF2B11F460FFAF
:1014000004C06F5F7F4F8F4F9F4F089557FD9058D7
:10141000440F551F59F05F3F71F04795880F97FBB8
:10142000991F61F09F3F79F0879508951216130672
:101430001406551FF2CF4695F1DF08C016161706A1
:101440001806991FF1CF86957105610508940895D6
:10145000E894BB2766277727CB0197F908952F9249
:101460003F924F925F926F927F928F929F92AF9234
:10147000BF92CF92DF92EF92FF920F931F93CF9381
:10148000DF93CDB7DEB7CA1BDB0B0FB6F894DEBF18
:101490000FBECDBF09942A88398848885F846E843E
:1014A0007D848C849B84AA84B984C884DF80EE8088
:1014B000FD800C811B81AA81B981CE0FD11D0FB691
:1014C000F894DEBF0FBECDBFED01089510E0CDE56D
:1014D000D0E004C0FE010E94D8062196CE35D10787
:0614E000C9F7F894FFCFEC
:1014E6000C2A2A2A2A2A2A382C000000000000008A
:1014F60000000000000000000000000000000000E6
:1015060000000000000000000000000000000000D5
:1015160000000000000000000000000000000000C5
:1015260000000000000000360280000000010008F4
:1015360000400000010004050D0D0E131516191AC2
:101546001C232526292A2C3234000000005301CF03
:0A155600001C01FA000E019A0100CA
:107E0000112484B714BE81FFF0D085E080938100F7
:107E100082E08093C00088E18093C10086E0809377
:107E2000C20080E18093C4008EE0C9D0259A86E02C
:107E300020E33CEF91E0309385002093840096BBD3
:107E4000B09BFECF1D9AA8958150A9F7CC24DD24C4
:107E500088248394B5E0AB2EA1E19A2EF3E0BF2EE7
:107E6000A2D0813461F49FD0082FAFD0023811F036
:107E7000013811F484E001C083E08DD089C08234E0
:107E800011F484E103C0853419F485E0A6D080C0E4
:107E9000853579F488D0E82EFF2485D0082F10E0AE
:107EA000102F00270E291F29000F111F8ED06801E7
:107EB0006FC0863521F484E090D080E0DECF843638
:107EC00009F040C070D06FD0082F6DD080E0C81688
:107ED00080E7D80618F4F601B7BEE895C0E0D1E017
:107EE00062D089930C17E1F7F0E0CF16F0E7DF06D8
:107EF00018F0F601B7BEE89568D007B600FCFDCFD4
:107F0000A601A0E0B1E02C9130E011968C91119780
:107F100090E0982F8827822B932B1296FA010C0160
:107F200087BEE89511244E5F5F4FF1E0A038BF0790
:107F300051F7F601A7BEE89507B600FCFDCF97BE46
:107F4000E89526C08437B1F42ED02DD0F82E2BD052
:107F50003CD0F601EF2C8F010F5F1F4F84911BD097
:107F6000EA94F801C1F70894C11CD11CFA94CF0C13
:107F7000D11C0EC0853739F428D08EE10CD085E9AC
:107F80000AD08FE07ACF813511F488E018D01DD067
:107F900080E101D065CF982F8091C00085FFFCCF94
:107FA0009093C60008958091C00087FFFCCF809118
:107FB000C00084FD01C0A8958091C6000895E0E648
:107FC000F0E098E1908380830895EDDF803219F02E
:107FD00088E0F5DFFFCF84E1DECF1F93182FE3DFCA
:107FE0001150E9F7F2DF1F91089580E0E8DFEE27F6
:047FF000FF270994CA
:027FFE00040479
:0400000300007E007B
:00000001FF
